:100000000C9434000C9446000C9446000C9446006A
:100010000C9446000C9446000C9446000C94460048
:100020000C9446000C9446000C9446000C94460038
:100030000C9446000C9446000C9446000C94460028
:100040000C9448000C9446000C9446000C94460016
:100050000C9446000C9446000C9446000C94460008
:100060000C9446000C94460011241FBECFEFD8E03C
:10007000DEBFCDBF21E0A0E0B1E001C01D92A13004
:10008000B207E1F70E9463000C946C000C9400002E
:100090001F921FB61F9211248F939F93809100018E
:1000A0008F5F8093000180910001843630F085B12C
:1000B00091E0892785B9109200019F918F911F903F
:1000C0001FBE1F901895209A14BC85E085BD81E065
:0C00D00080936E007894FFCFF894FFCF6F
:00000001FF
