:100000000C9434000C9446000C9446000C9446006A
:100010000C9446000C9446000C9446000C94460048
:100020000C9446000C9446000C9446000C94460038
:100030000C9446000C9446000C9446000C94460028
:100040000C9448000C9446000C9446000C94460016
:100050000C9446000C9446000C9446000C94460008
:100060000C9446000C94460011241FBECFEFD8E03C
:10007000DEBFCDBF21E0A0E0B1E001C01D92A23003
:10008000B207E1F70E945A000C946F000C94000034
:100090008F938FB78F939F9380910001909101016F
:1000A000019690930101809300019F918F918FBFE2
:1000B0008F9118958FEF84B914BC85E085BD81E0E0
:1000C00080936E007894F8948091000190910101E2
:1000D0007894969587959695879585B9F4CFF894F9
:0200E000FFCF50
:00000001FF
