:100000000C9434000C9454000C9446000C9446005C
:100010000C9446000C9446000C9446000C94460048
:100020000C9446000C9446000C9446000C94460038
:100030000C9446000C9446000C9446000C94460028
:100040000C9448000C9446000C9446000C94460016
:100050000C9446000C9446000C9446000C94460008
:100060000C9446000C94460011241FBECFEFD8E03C
:10007000DEBFCDBF21E0A0E0B1E001C01D92A23003
:10008000B207E1F70E9460000C9478000C94000025
:100090008F938FB78F93809101018F5F80930101C0
:1000A0008F918FBF8F9118958F938FB78F9380917A
:1000B00000018F5F809300018F918FBF8F91189502
:1000C0008FEF84B98FE387B95A9A14BC85E085BD58
:1000D00081E080936E0092E0909369008DBB7894EC
:1000E0008091010185B9809100018F7388B9F8CFA3
:0400F000F894FFCFB2
:00000001FF
