:100000000C9434000C9446000C9446000C9446006A
:100010000C9446000C9446000C9446000C94460048
:100020000C9446000C9446000C9446000C94460038
:100030000C9446000C9446000C9446000C94460028
:100040000C9448000C9446000C9446000C94460016
:100050000C9446000C9446000C9446000C94460008
:100060000C9446000C94460011241FBECFEFD8E03C
:10007000DEBFCDBF21E0A0E0B1E001C01D92A23003
:10008000B207E1F70E945A000C9491000C94000012
:100090008F938FB78F939F9380910001909101016F
:1000A000019690930101809300019F918F918FBFE2
:1000B0008F91189500D000D0CDB7DEB784B18360A2
:1000C00084B914BC85E085BD81E080936E0078948E
:1000D00022E0F894409100015091010119821A82A6
:1000E0001B821C8289819A81AB81BC818035934CB3
:1000F000A105B10540F0789445FF11C0289A85B15B
:10010000822785B9E6CF89819A81AB81BC8101962E
:10011000A11DB11D89839A83AB83BC83E3CF28984B
:06012000EECFF894FFCFC2
:00000001FF
