:100000000C9434000C946B000C9446000C94460045
:100010000C9446000C9446000C9446000C94460048
:100020000C9446000C9446000C9446000C94460038
:100030000C9446000C9446000C9446000C94460028
:100040000C9448000C9446000C9446000C94460016
:100050000C9446000C9446000C9446000C94460008
:100060000C9446000C94460011241FBECFEFD8E03C
:10007000DEBFCDBF21E0A0E0B1E001C01D92A830FD
:10008000B207E1F70E94B3000C94C1000C94000089
:100090001F921FB61F9211248F939F93AF93BF930C
:1000A0008091040190910501A0910601B091070192
:1000B0000196A11DB11D8093040190930501A093A9
:1000C0000601B0930701BF91AF919F918F911F904F
:1000D0001FBE1F9018951F921FB61F9211240F93D9
:1000E0001F932F933F934F935F936F937F938F93C0
:1000F0009F93AF93BF93409104015091050160918C
:100100000601709107018091000190910101A09179
:100110000201B09103018A019B01081B190B2A0BF4
:100120003B0BC801D9014E97A105B10560F085B11F
:1001300091E0892785B940930001509301016093B4
:10014000020170930301BF91AF919F918F917F91B5
:100150006F915F914F913F912F911F910F911F9040
:100160001FBE1F901895209A5A9A14BC83E085BD33
:1001700081E080936E0092E0909369008DBB78944B
:06018000FFCFF894FFCF51
:00000001FF
