:100000000C9434000C9448000C9446000C94460068
:100010000C9446000C9446000C9446000C94460048
:100020000C9446000C9446000C9446000C94460038
:100030000C9446000C9446000C9446000C94460028
:100040000C9446000C9446000C9446000C94460018
:100050000C9446000C9446000C9446000C94460008
:100060000C9446000C94460011241FBECFEFD8E03C
:10007000DEBFCDBF21E0A0E0B1E001C01D92A13004
:10008000B207E1F70E944E000C9473000C9400003C
:100090008F9381E0809300018F91189584B18360E4
:1000A00084B922982A9A5A9A82E08093690081E062
:1000B0008DBB789480910001811591F02898299A40
:1000C0001A99F8CF2FEF89EF90E0215080409040AF
:1000D000E1F700C000001A99EDCF10920001EACFBD
:0A00E000289A2998EDCFF894FFCF7D
:00000001FF
