:100000000C9434000C943E000C943E000C943E0082
:100010000C943E000C943E000C943E000C943E0068
:100020000C943E000C943E000C943E000C943E0058
:100030000C943E000C943E000C943E000C943E0048
:100040000C943E000C943E000C943E000C943E0038
:100050000C943E000C943E000C943E000C943E0028
:100060000C943E000C943E0011241FBECFEFD8E04C
:10007000DEBFCDBF0E9440000C9464000C940000D1
:100080008FE084B980EF85B920EF41E052E064E071
:1000900038E093B1907F892F8095822384FF03C03D
:1000A00025B1242725B985FF03C025B1252725B90A
:1000B00086FF03C025B1262725B987FF03C085B178
:0C00C000832785B9292FE5CFF894FFCFE6
:00000001FF
