:100000000C9434000C943E000C943E000C943E0082
:100010000C943E000C943E000C943E000C943E0068
:100020000C943E000C943E000C943E000C943E0058
:100030000C943E000C943E000C943E000C943E0048
:100040000C943E000C943E000C943E000C943E0038
:100050000C943E000C943E000C943E000C943E0028
:100060000C943E000C943E0011241FBECFEFD8E04C
:10007000DEBFCDBF0E9440000C9472000C940000C3
:100080008FEF84B987E880937A0050E421E030E074
:100090006FEF50937C0080917A00806480937A00A7
:1000A00080917A0086FDFCCF809178009091790054
:1000B000A0E0B0E047E0B695A795979587954A955B
:1000C000D1F7811102C015B8E4CF883010F065B9BE
:1000D000E0CFF90101C0EE0F8A95EAF78E2F81502B
:0800E00085B9D7CFF894FFCFDA
:00000001FF
