:100000000C9434000C9446000C9446000C9446006A
:100010000C9446000C9446000C9446000C94460048
:100020000C9446000C9446000C9446000C94460038
:100030000C9446000C9446000C9446000C94460028
:100040000C9446000C9446000C9446000C94460018
:100050000C9446000C9448000C9446000C94460006
:100060000C9446000C94460011241FBECFEFD8E03C
:10007000DEBFCDBF21E0A0E0B1E001C01D92A238FB
:10008000B207E1F70E947C000C94A3000C940000DE
:100090001F921FB61F9211248F939F93EF93FF938C
:1000A00080910001811120C0E0910101F0E0809178
:1000B000780090917900EE0FFF1FEE5FFE4F918365
:1000C0008083809101018F5F809301018091010104
:1000D000803450F01092010181E080930001809102
:1000E0007A00877D80937A00FF91EF919F918F91A5
:1000F0001F901FBE1F9018958FEF84B980E48093E6
:100100007C008FEA80937A0010927B007894809133
:100110007A00806480937A0080910101811589F0D2
:10012000809101018150990BFC01EE0FFF1FEE5FE2
:10013000FE4F80819181969587959695879585B993
:0A014000EBCF90E0F1CFF894FFCF71
:00000001FF
