:100000000C9434000C943E000C943E000C943E0082
:100010000C943E000C943E000C943E000C943E0068
:100020000C943E000C943E000C943E000C943E0058
:100030000C943E000C943E000C943E000C943E0048
:100040000C943E000C943E000C943E000C943E0038
:100050000C943E000C943E000C943E000C943E0028
:100060000C943E000C943E0011241FBECFEFD8E04C
:10007000DEBFCDBF0E9440000C9473000C940000C2
:100080008FEF84B987E880937A0040E440937C0046
:1000900080917A00806480937A0080917A0086FD56
:1000A000FCCF2091780030917900A4EFB1E00E945C
:1000B0006400672F782F892F8695779567958695A9
:1000C0007795679565B9E2CFA29FB001B39FC00154
:1000D000A39F700D811D1124911DB29F700D811D74
:0A00E0001124911D0895F894FFCF3C
:00000001FF
