:100000000C9434000C943E000C943E000C943E0082
:100010000C943E000C943E000C943E000C943E0068
:100020000C943E000C943E000C943E000C943E0058
:100030000C943E000C943E000C943E000C943E0048
:100040000C943E000C943E000C943E000C943E0038
:100050000C943E000C943E000C943E000C943E0028
:100060000C943E000C943E0011241FBECFEFD8E04C
:10007000DEBFCDBF0E9443000C945C000C940000D6
:100080002898209808950E9440002898209A2FEFE1
:1000900089E698E1215080409040E1F700C00000DF
:1000A0000E9440002FEF89E698E121508040904067
:0C00B000E1F700C00000E9CFF894FFCF9A
:00000001FF
