:100000000C9434000C9449000C9449000C94490061
:100010000C9449000C9449000C9449000C9449003C
:100020000C9449000C9449000C9449000C9449002C
:100030000C9449000C9449000C9449000C9449001C
:100040000C9449000C9449000C9449000C9449000C
:100050000C9449000C9449000C9449000C944900FC
:100060000C9449000C94490011241FBECFEFD8E036
:10007000DEBFCDBF11E0A0E0B1E0E6EAF3E002C0F0
:1000800005900D92A838B107D9F70E94F4000C949E
:10009000D1010C94000095B18F70907F892B85B9A8
:1000A000599A85E08A95F1F7000059988FE891E018
:1000B0000197F1F700C00000089580E090E061E052
:1000C00028B12F6028B948B1262F082E01C0220F71
:1000D0000A94EAF72095242328B92AE12A95F1F712
:1000E00000C020E030E049B150E0F901EC5F02C00F
:1000F00055954795EA95E2F740FD0BC0880F991F8B
:10010000880F991F80509F4F280F391FF901808158
:1001100008952F5F3F4F2430310529F70196843031
:10012000910571F680E00895CF93DF930F92CDB7DC
:10013000DEB789835898898182958F700E944B0021
:1001400089810E944B008FE39FE10197F1F700C086
:1001500000000F90DF91CF910895CF93DF930F921E
:10016000CDB7DEB78983589A898182958F700E94B6
:100170004B0089810F90DF91CF910C944B00CF936E
:10018000DF93EC018881811103C0DF91CF91089545
:1001900021960E94AD00F6CFCF93C82F81E00E9438
:1001A0009400C13060F480E191E00E94BF0080ECD7
:1001B0000E9494008FE191E0CF910C94BF0051F424
:1001C00088E291E00E94BF0080EC0E94940084E3EA
:1001D00091E0F2CF80E491E00E94BF0080EC0E94A9
:1001E000940089E491E0E8CF00D000D000D0CDB7F2
:1001F000DEB787B18F6087B98AB18F708AB98BB14A
:10020000806F8BB987E880937A0084B18F6184B95D
:100210008AB183608AB92FEF89EF90E02150804046
:100220009040E1F700C0000083E00E944B008FE1A6
:100230009EE40197F1F700C0000083E00E944B00AC
:100240008FE193E00197F1F700C0000083E00E9486
:100250004B0082E00E944B0088E20E9494008CE0F8
:100260000E94940086E00E94940081E00E94940025
:1002700080E00E94CC0010E00E945D008115E1F357
:10028000823359F4812F90E0019663E070E00E9480
:10029000BD01182F0E94CC003AC0883321F4812F71
:1002A00090E00296F2CF833209F063C081E00E94B1
:1002B0009400113048F485B190E1892785B983E530
:1002C00091E00E94BF0023C009F049C08FE591E092
:1002D0000E94BF0080EC0E94940085E480937C0023
:1002E00080917A00806480937A0080917A00082F50
:1002F000007486FDFACF2091780030917900EAE011
:10030000F0E02115310589F480E30E94AD000E94E0
:100310005D008111FCCF2FEF89EF90E021508040EC
:100320009040E1F700C00000A7CFC901BF010E94C3
:10033000BD01DE011196A00FB11D0F5F805D8C9392
:10034000C9019B010A9788F7011509F30150FE01C5
:100350003196E00FF11D80810E94AD00F5CF8BE654
:1003600091E00E94BF0080EC0E9494008BE791E036
:10037000A8CF8A3261F6812F8DCFAA1BBB1B51E11A
:1003800007C0AA1FBB1FA617B70710F0A61BB70B05
:10039000881F991F5A95A9F780959095BC01CD01AA
:0603A0000895F894FFCF60
:1003A6003132334134353642373839432A302344E3
:1003B600312E204C454420436F6E74726F6C0023BF
:1003C60020546F67676C6500322E204144432056E7
:1003D60069657700232052656164204144433500F6
:1003E600332E2041626F7574002320446574616961
:1003F6006C73004C454420546F67676C656400411C
:100406004443352056616C75653A00426172652D2C
:100416004D6574616C204D656E75004B6579706134
:0804260064202B204C4344002C
:00000001FF
