:100000000C9434000C943E000C943E000C943E0082
:100010000C943E000C943E000C943E000C943E0068
:100020000C943E000C943E000C943E000C943E0058
:100030000C943E000C943E000C943E000C943E0048
:100040000C943E000C943E000C943E000C943E0038
:100050000C943E000C943E000C943E000C943E0028
:100060000C943E000C943E0011241FBECFEFD8E04C
:10007000DEBFCDBF0E9440000C945E000C940000D7
:10008000569A87E880937A0083E884BD82E085BD34
:1000900020E420937C0080917A00806480937A0031
:1000A00080917A0086FDFCCF809178009091790054
:1000B000969587959695879587BDEBCFF894FFCF5A
:00000001FF
