:100000000C9434000C9446000C9446000C9446006A
:100010000C9446000C9446000C9446000C94460048
:100020000C9446000C9446000C9448000C94460036
:100030000C9446000C9446000C9446000C94460028
:100040000C9446000C9446000C9446000C94460018
:100050000C9446000C9446000C9446000C94460008
:100060000C9446000C94460011241FBECFEFD8E03C
:10007000DEBFCDBF21E0A0E0B1E001C01D92A630FF
:10008000B207E1F70E9485000C94CA000C940000AE
:100090001F921FB61F9211242F933F938F939F930C
:1000A00080910001811118C0809186009091870095
:1000B0009093050180930401809181008F7B809350
:1000C000810081E0809300019F918F913F912F915A
:1000D0001F901FBE1F9018958091860090918700F9
:1000E0002091040130910501821B930B9093030131
:1000F000809302018091810080648093810010923E
:10010000000181E080930101DFCF219A8FEF8AB94E
:100110001092800082E48093810080E280936F00DF
:10012000789424E730E01092010129984AE04A953A
:10013000F1F700C0299A85E38A95F1F70000299824
:10014000809101018115E1F38091020190910301F9
:10015000B9010E94B6006BB99FEF4DEE82E091505D
:1001600040408040E1F700C00000DDCFAA1BBB1B70
:1001700051E107C0AA1FBB1FA617B70710F0A61BA7
:10018000B70B881F991F5A95A9F780959095BC01C8
:08019000CD010895F894FFCFA2
:00000001FF
