:100000000C9434000C9448000C9446000C94460068
:100010000C9446000C9446000C9446000C94460048
:100020000C9446000C9446000C9446000C94460038
:100030000C9446000C9446000C9446000C94460028
:100040000C9446000C9446000C9446000C94460018
:100050000C9446000C9446000C9446000C94460008
:100060000C9446000C94460011241FBECFEFD8E03C
:10007000DEBFCDBF21E0A0E0B1E001C01D92A13004
:10008000B207E1F70E945F000C946E000C94000030
:100090008F938FB78F939F934A9B0FC0289A85B1F8
:1000A00092E0892785B9809100018F5F80930001DC
:1000B0009F918F918FBF8F9118952898F0CF84B121
:1000C000836084B98FE387B981E0809369008DBB39
:1000D0007894809100018F7388B9FBCFF894FFCF9B
:00000001FF
