:100000000C9434000C943E000C943E000C943E0082
:100010000C943E000C943E000C943E000C943E0068
:100020000C943E000C943E000C943E000C943E0058
:100030000C943E000C943E000C943E000C943E0048
:100040000C943E000C943E000C943E000C943E0038
:100050000C943E000C943E000C943E000C943E0028
:100060000C943E000C943E0011241FBECFEFD8E04C
:10007000DEBFCDBF0E9440000C9460000C940000D5
:100080008FEF84B982E084BD83E085BD89EF87BDB1
:100090001092800087E08093810022E0109285001A
:1000A0001092840088EE93E025BB16BCA99BFECF7E
:1000B0000197D1F7809184009091850085B9EECFAA
:0400C000F894FFCFE2
:00000001FF
