:100000000C9434000C946F000C9446000C94460041
:100010000C9446000C9446000C9446000C94460048
:100020000C9446000C9446000C9446000C9463001B
:100030000C9446000C9446000C9446000C94460028
:100040000C9446000C9446000C9446000C94460018
:100050000C9446000C9446000C9446000C94460008
:100060000C9446000C94460011241FBECFEFD8E03C
:10007000DEBFCDBF21E0A0E0B1E001C01D92A23003
:10008000B207E1F70E9475000C94DA000C940000AE
:1000900025B1287F25B92BB12F712BB9823091055D
:1000A00061F028F4892B39F42A9A5D9A0895039710
:1000B00039F0289AFACF299AF8CF289A5F9A0895AA
:1000C000289A5E9A08958F938FB78F93809101013C
:1000D0008F5F809301018F918FBF8F9118958F93C0
:1000E00081E0809300018F91189584B1876084B975
:1000F0008AB1806E8AB95A9A109280008DE08093FE
:10010000810088E09DE3909389008093880082E0DD
:1001100080936F008093690081E08DBB789480E0CC
:1001200090E00E94480020E080E090E010C02F5F47
:100130008230910591F108F5009729F5253039F4C1
:1001400081E090E00E94480020E081E090E0309162
:1001500001013115E1F3309101013150309301017A
:1001600030910001311519F31092000184E090E004
:100170000E94480020E084E0E9CF83309105B9F087
:100180002530C9F7CCCF213001F382E090E00E9406
:10019000480020E082E090E0DACF2530C1F683E02D
:1001A00090E00E94480020E083E090E0D0CF213032
:0801B00071F2B5CFF894FFCF06
:00000001FF
